:020000040800F2
:108000000020002045A30008158200083B820008DC
:1080100047820008578200086782000800000000BD
:108020000000000000000000000000005181000876
:108030008B82000800000000958100088BD50008A5
:10804000BFA30008BFA30008BFA30008BFA3000888
:10805000BFA30008BFA30008BFA30008BFA3000878
:10806000BFA30008BFA30008BFA30008BFA3000868
:10807000BFA30008BFA30008BFA30008BFA3000858
:10808000BFA30008BFA30008BFA30008BFA3000848
:10809000BFA30008BFA30008BFA30008BFA3000838
:1080A000BFA30008BFA30008BFA30008BFA3000828
:1080B000BFA30008F9AD0008BFA30008BFA30008D4
:1080C000BFA30008BFA30008BFA30008BFA3000808
:1080D000BFA300083138020823380208FB37020822
:1080E00035560208BFA30008BFA30008BFA30008BD
:1080F000BFA30008BFA30008BFA30008BFA30008D8
:10810000BFA30008BFA30008BFA30008BFA30008C7
:1081100039760208BFA300086BAE0008BFA30008B1
:10812000BFA30008BFA30008BFA30008BFA30008A7
:10813000DFF810D031F04EFF004800475F510208D1
:10814000AFF300800020002080F308887047000013
:10815000224B19680868B0E8F00F80F30988BFF374
:108160006F8F4FF0000080F311884EF00D0E7047B6
:108170000000000006480068006880F3088862B6C6
:1081800061B6BFF34F8FBFF36F8F00DF00BF00BF3B
:1081900008ED00E0EFF30980BFF36F8F0F4B1A6813
:1081A00020E9F00F106008B54FF0BF0080F3118890
:1081B000BFF34F8FBFF36F8F04F0F0F94FF0000063
:1081C00080F31188BDE8084019680868B0E8F00F2E
:1081D00080F30988BFF36F8F704700BF282000200D
:1081E000EFF305807047CAB2401E10F8011F8A42A3
:1081F00002D00029F9D100207047012231F03ABEA7
:1082000054656D636F5049443130000000000098A0
:108210001A00000025A032F06FBA10B504464FF4E2
:10822000E13005F05DFA244B0122C3F8A02121467C
:10823000BDE8104021A032F05FBA2448C18AE8208E
:108240001FF0ABF8FEE71421E8201FF0A6F820A0ED
:1082500032F052FAFBE71E21E8201FF09EF81FA023
:1082600032F04AFAFBE72821E8201FF096F81EA01A
:1082700032F042FAFBE710B53221E8201FF08DF80A
:10828000BDE810401CA032F037BA10B53C21E82000
:108290001FF083F8BDE8104019A032F02DBA1AA0E3
:1082A00032F02ABA1AA032F027BA00004E4D492007
:1082B0006661756C7400000000002142646562759F
:1082C000673A202573200D0A00000000EC2A0020E8
:1082D0004D656D204661756C7420000042757320F9
:1082E0004661756C742000005573616765204661B6
:1082F000756C7420000000005356432000000000FD
:10830000446562756720000050656E200000000023
:108310005379735469636B20000000000CB5002290
:108320004C4800920192016841F4803101604FF4A1
:10833000A063016801F4003101910099491C00918A
:10834000019911B900999942F3D10168890333D594
:108350000121019140490A6842F010020A600A684E
:1083600022F003020A600A6842F002020A604168D1
:10837000416041684160416841F480614160416809
:1083800021F47C114160416841F4E81141600168C9
:1083900041F08071016001688901FCD5416821F0DC
:1083A00003014160416841F0020141604168C1F34D
:1083B00081010229FAD10CBD01920CBD254810B5EE
:1083C000016841F0010101604168244A11404160A7
:1083D0000168234A11400160016821F48021016095
:1083E000416821F4FE0141604FF41F018160FFF7F5
:1083F00095FF1C494FF00060086010BD154A10B58C
:108400005068194B10F00C01184803D0042901D012
:10841000082901D0036012E05168536801F470111B
:108420004FF0020413F4803F04EB914102D05368F3
:108430009B0301D50E4B00E00B4B59430160516883
:108440000A4AC1F30311121D515C0268CA4002605E
:1084500010BD000000100240002002400000FFF8A4
:10846000FFFFF6FE08ED00E000127A000000006059
:1084700000093D002849084328490860704730B585
:108480000F23C27801780125F2B1244A126801F164
:10849000E02102F4E062C2F5E062120AC2F10404D3
:1084A000D3404278A24084781C401443220181F8D2
:1084B0000024007800F01F018D404009800000F189
:1084C000E020C0F8005130BD01F01F008540480990
:1084D000800000F1E020C0F8805130BD104A11400A
:1084E00001430E48001F016070470C4A121D00290D
:1084F000116801D0014300E08143116070474FF0E3
:10850000E0210428086903D020F0040008617047C6
:1085100040F00400FAE700000000FA050CED00E06E
:1085200080FFFF1FC74910B5884202D101214415C1
:108530000AE0C549884202D10121041504E0C3497B
:1085400088420AD10121CC03204600F04EFD20468E
:10855000BDE81040002100F048BD10BD10B54268D4
:10856000BB4B0C791A400B6842EA04221343436068
:108570008268B84BD1F806401A40D1F80A3023433C
:108580004C7942EA440213438360C26A897B22F435
:108590007002491EC9B242EA0151C16210BD0021F8
:1085A000016001714171C0F80610C0F80A10012184
:1085B000817370470029816802D041F0010101E018
:1085C00021F00101816070470029816802D041F4E7
:1085D000807101E021F4807181607047002A426857
:1085E000C9B201D00A4300E08A4342607047816803
:1085F00041F0080181607047014600208968090741
:1086000000D501207047816841F004018160704706
:10861000014600208968490700D5012070470029DC
:10862000816802D041F4A00101E021F4A001816041
:108630007047014600208968490200D50120704733
:108640004268491E22F4604242EA4131416070476B
:108650000029416802D041F4006101E021F4006189
:108660004160704770B5072609290AD9C568A1F18C
:108670000A0404EB4404A640B543A3401D43C5606F
:1086800007E0056901EB4104A640B543A3401D4343
:1086900005611F23072A09D2446B521E02EB820296
:1086A00093409C4391400C43446370BD0D2A09D212
:1086B000046BD21F02EB820293409C4391400C4317
:1086C000046370BDC46A0D3A02EB820293409C437E
:1086D00091400C43C46270BD0029816802D041F40E
:1086E000801101E021F4801181607047C06C80B27C
:1086F000704754484C30006870470029416802D0E8
:1087000041F4806101E021F48061416070470029FB
:10871000416802D041F4805101E021F48051416070
:108720007047826822F4E0420A4382607047002961
:10873000816802D041F4004101E021F400418160F0
:1087400070470029816802D041F4021101E021F450
:10875000021181607047014600208968890200D5B6
:108760000120704770B5072609290AD9C568A1F10B
:108770000A0404EB4404A640B543A3401D43C5606E
:1087800007E0056901EB4104A640B543A3401D4342
:108790000561836BC3F30154121B921C02EB82022E
:1087A0001F249440A34391400B43836370BD826BAD
:1087B000491E22F4401242EA01518163704708B514
:1087C00008440090026008BD08B5084428300090B5
:1087D000006880B208BD42681F4B1A400A434260DD
:1087E0007047416282627047426822F01F020A436A
:1087F00042607047134908310028086802D040F4ED
:10880000000001E020F400000860704702460020EC
:1088100012680A4200D001207047C94301607047C6
:1088200010B50246002054680B0AC9B20C4011680A
:10883000194202D0002C00D0012010BD6FEA112196
:10884000016070470024014000280140003C0140C5
:10885000FFFEF0FFFDF7F1FFFFFD3FFF01684FF660
:10886000FE72114001600021016041608160C160C1
:108870006A496A4A0839904203D1486840F00F00BB
:1088800006E0664A1432904204D1486840F0F00095
:1088900048607047614A2832904203D1486840F4EA
:1088A0007060F5E75D4A3C32904203D1486840F47D
:1088B0007040EDE7594A5032904203D1486840F485
:1088C0007020E5E7554A6432904203D1486840F48D
:1088D0007000DDE7514A7832904203D1486840F099
:1088E0007060D5E74E4A111F904203D1086840F0EE
:1088F0000F0006E04A4A1432904204D1086840F062
:10890000F00008607047464A2832904203D1086858
:1089100040F47060F5E7424A3C32904203D1086867
:1089200040F47040EDE73E4A50329042EAD1086888
:1089300040F47020E5E730B5026847F6F0739A43DB
:108940008B680C6A4D6923430C692C4323438C6963
:108950002343CC6923434C6A23438C6A2343134348
:108960000360CA6842600A6882604968C16030BDBD
:108970000021016041608160C160016141618161EC
:10898000C16101624162816270470029016802D0C1
:1089900041F0010102E04FF6FE72114001607047A4
:1089A000002A026801D00A4300E08A43026070474F
:1089B00041607047406880B2704702460020D10095
:1089C00002D51749083901E01449083909681142EC
:1089D00000D001207047C10003D51149091F08606C
:1089E00070470E4908394860704702460020D100A0
:1089F00002D50B49083901E00849083909681142D4
:108A000000D001207047C10003D50549091F086047
:108A1000704702490839486070470000080002406A
:108A200008040240374900200860091D0860091D3C
:108A30000860091D086033493348143108607047E5
:108A400030B5304A8379016853B313688B431360A0
:108A5000111D0B680468A3430B60017911440B6876
:108A6000046823430B60274B083319680468A1434B
:108A700019601C1D21680568A943216041791029EE
:108A800005D011440A68006802430A6030BD1968C5
:108A9000026811431960216800680143216030BDFC
:108AA0000079104402688A43026030BD00210160F1
:108AB00001710C22427181717047124910310A68AC
:108AC00002430A60704701460E4A002014321268C1
:108AD0000A4200D0012070470A49143108607047EB
:108AE000084A014600201268064B0A4014331B68EE
:108AF0000B4202D0002A00D00120704701491431F6
:108B00000860704700040140FFFF0F008F4910B557
:108B1000884206D10121042000F067FA00210420D8
:108B20003BE08B49884206D10121082000F05DFA24
:108B30000021082031E08749884206D10121102018
:108B400000F053FA0021102027E08349884206D123
:108B50000121202000F049FA002120201DE07F495A
:108B6000884206D10121402000F03FFA0021402038
:108B700013E07B49884206D10121802000F035FABC
:108B80000021802009E0774988420AD1841501211B
:108B9000204600F02AFA00212046BDE8104000F0EF
:108BA00024BA10BD10B50121084600F01EFA0021BC
:108BB000BDE81040012000F018BAF0B5CC780022D2
:108BC00004F00F03E40601D58C7823430C784FF0B2
:108BD0000F0C14F0FF0F4FF0010E1BD005680E882C
:108BE0000EFA02F42640A64210D196000CFA06F7BF
:108BF00025EA070703FA06F5CE783D43282E02D072
:108C0000482E02D002E0446100E00461521C082AB0
:108C1000E5D305600A88FF2A1CD94468002202F1C6
:108C200008060EFA06F50E882E40AE420ED19600CA
:108C30000CFA06F7BC4303FA06F7CE783C43282E1D
:108C400000D14561CE78482E00D10561521C082A1A
:108C5000E5D34460F0BD4FF6FF71018002218170C1
:108C60000421C17070470246002092680A4200D079
:108C700001207047806880B2704702460020D268A9
:108C80000A4200D001207047C06880B2704701617D
:108C90007047416170470AB1016170474161704797
:108CA000C160704741F48032826181618261816973
:108CB000806970472C4B10B51A684FF680742240BB
:108CC00042EA00100843186010BD2849C861704787
:108CD000F0B5254C002801DAE36900E06368450D32
:108CE0002E0185B2C0F30157B540C0F30342032FF4
:108CF00005D0C6020AD503269640B34307E023F009
:108D00007062636823F07063636002E0AB4343F01A
:108D1000706201B12A43002801DAE261F0BD6260AD
:108D2000F0BD10B58A0721F003040F49120F21444A
:108D30000F238C6893409C438C608B689040034366
:108D40008B6010BD0949C1F8DC0070470008014084
:108D5000000C0140001001400014014000180140C7
:108D6000001C0140002001400000014000002042A2
:108D70000D49086070470C49486070470A4988608F
:108D8000704709494AF6AA200860704706494CF620
:108D9000CC4008607047044A01460020D2680A426D
:108DA00000D001207047000000300040A548016855
:108DB00041F0010101604168A34A1140416001682E
:108DC000A24A11400160016821F4802101604168DC
:108DD00021F4FE0141604FF41F0181607047994901
:108DE0000A6822F480320A600A6822F480220A604B
:108DF000B0F5803F07D0B0F5802F03D1086840F46C
:108E0000A02008607047086840F48030F9E7034606
:108E1000002059098B4A01290AD002290AD0516A37
:108E200003F01F02012393400B4200D00120704742
:108E30001168F5E7116AF3E718B500204FF4A06454
:108E400000903120FFF7E3FF0099491C0091A142F7
:108E500001D00028F5D03120FFF7D9FF002800D03D
:108E6000012018BD774A116821F0F80141EAC000DD
:108E700010607047764908607047724B5A68084323
:108E800022F47C121043586070477149086670479D
:108E90006C4A516821F003010143516070476948F1
:108EA000406800F00C007047664A516821F0F001FC
:108EB000014351607047634A516821F4E061014306
:108EC000516070475F4A516821F4605141EAC00027
:108ED000506070475B4A0029517A01D0014300E09D
:108EE0008143517270475A49C1F8D8007047554ABA
:108EF000516821F4404101435160704751490022BB
:108F000081F8202081F82020012802D0042802D1F5
:108F1000052081F8200070474E4908607047494994
:108F20000A6A02430A6270474A4944390860704736
:108F300030B5444A5168484B11F00C0103D0042964
:108F400001D0082901D0036012E05168536801F490
:108F500070114FF0020413F4803F04EB914102D0F2
:108F600053689B0301D53D4B00E03B4B59430160E7
:108F700051680F2303EA1111394B5C5C0168E14031
:108F800041605468072505EA14241C5D21FA04F4A5
:108F90008460546805EAD4241B5DD940C1605268DE
:108FA000032303EA92322E4B1B1F9A5CB1FBF2F1B2
:108FB000016130BD234A0029516901D0014300E01D
:108FC0008143516170471F4A0029916901D00143D3
:108FD00000E08143916170471A4A0029D16901D0AC
:108FE000014300E08143D1617047164A0029D168EE
:108FF00001D0014300E08143D1607047114A00294C
:10900000116901D0014300E08143116170471149AA
:109010004039086070470E49C86470470949C871F3
:1090200070470848416A41F0807141627047054AC3
:109030000146002092680A4200D001207047014991
:1090400088727047001002400000FFF8FFFFF6FE34
:10905000000042428004424200127A0000093D00B2
:1090600004200020424A0029118801D0014300E079
:109070008143118070473E48001D018841F0100176
:10908000018070473A48001D018821F010010180DD
:10909000704737481C30008835491831098840EA44
:1090A0000140704700B50246FFF7E5FF3049100C5C
:1090B00018310880081D02805DF804EBE2E700B576
:1090C0000246FFF7D8FF2A49C2F30340083108805F
:1090D000081D02805DF804EBD4E700B50246FFF7F7
:1090E000CAFF2349100C20310880081D02805DF85A
:1090F00004EBC7E71E48103000880007010B1C482E
:1091000014300088084370471948001D01888906FB
:10911000FCD570471648001D018821F00801018028
:1091200001880907FCD570470146114A0020121D2D
:1091300012880A4200D0012070470D49091D0A8893
:1091400082430A8070470A49091D0988C2B211404A
:10915000074A1288024202D009B10120704700205C
:1091600070470349091D0A8882430A80704700003E
:1091700000280040994910B588420AD18414012181
:109180002046FFF732FF2046BDE810400021FFF7E0
:109190002CBF9349884202D10121041404E0914973
:1091A00088420AD10121C4132046FFF727FF204639
:1091B000BDE810400021FFF721BF10BD30B5028887
:1091C0004C8802F441530A88CD8822438C882C4372
:1091D00022430C8922434C8922438C892243CC8927
:1091E00022431A430280828B22F400628283098A1E
:1091F000018230BDF0B505460C4602200021AA8B45
:1092000085B001264FF240031A40AA832884AF8B11
:10921000A268022A21D0A08800B102266846FFF782
:1092200087FEE1880098B1F5007F2CD07101B0FB7A
:10923000F1F000EB8000A1684000B0FBF1F0401DB0
:1092400080B20A21B0FBF1F000F00101401A4FF6A4
:10925000FF72C0F34F0002EA0121821EFE2A01D3F1
:1092600002200021E288084302432A842088618882
:10927000A2890843A18811430843384340F40060A1
:10928000A88305B0F0BD000AD3E70021018041802A
:109290008180C180018141818181C1810721018259
:1092A00070470021018041808180C180022282605C
:1092B000818170470029018802D041F0400101E01E
:1092C00021F04001018070470029818B02D041F4D8
:1092D000806101E021F480618183704709090123E5
:1092E0008B40002A828899B201D00A4300E08A4369
:1092F00082807047002A828801D00A4300E08A43B6
:10930000828070478181704780897047A1F57E42D5
:109310000188FF3A02D041F4807101E021F48071AC
:10932000018070470029818802D041F0040101E0EA
:1093300021F0040181807047028822F400620280DB
:1093400002880A4302807047018841F480510180FD
:1093500070470029018802D041F4005101E021F456
:10936000005101807047012901D0008B7047808A2D
:109370007047008A7047B1F5804F018803D021F40F
:1093800080410180704741F48041FAE702460020A5
:1093900012890A4200D001207047C94301817047F9
:1093A00030B501F00F030125024605FA03F4002051
:1093B000A3B2090905FA01F49188A4B212892140E7
:1093C0001A4202D0002900D0012030BD01F00F0266
:1093D00001219140C94301817047000000300140E4
:1093E00000380040003C0040F94910B5884202D1E5
:1093F0000121C41486E0B0F1804F09D0F5498842BC
:109400000DD101210220FFF7F9FD0021022064E0C7
:1094100001210846FFF7F2FD002101205DE0EE4941
:10942000884206D101210420FFF7E8FD0021042035
:1094300053E0EA49884206D101210820FFF7DEFD0A
:109440000021082049E0E649884206D10121102088
:10945000FFF7D4FD002110203FE0E249884206D109
:1094600001212020FFF7CAFD0021202035E0DE4940
:10947000884202D10121441444E0DC49884202D1EF
:109480000121CC043EE0DA49884202D101210C05D9
:1094900038E0D849884202D101214C0532E0D64952
:1094A000884206D101214020FFF7A8FD002140207D
:1094B00013E0D249884206D101218020FFF79EFDAA
:1094C0000021802009E0CE4988420AD1841501217B
:1094D0002046FFF793FD00212046BDE81040FFF72E
:1094E0008DBDC849884202D101210C040AE0C64959
:1094F000884202D101214C0404E0C44988420AD1C7
:1095000001218C042046FFF770FD2046BDE8104085
:109510000021FFF76ABD10BD30B50288AC4CB24DDA
:10952000A0420DD0A8420BD0B0F1804F08D0A94B7B
:10953000984205D0A84B984202D0A84B984203D13C
:1095400022F070034A881A43A54B984206D0A54BD7
:10955000984203D022F44073CA881A4302808A8852
:1095600082850A880285A0420AD0A84208D0A54A6E
:10957000904205D0A44A904202D0A44A904201D120
:10958000097A01860121818230BD30B5028C22F03A
:1095900001020284028C8388048B22F0020224F0F0
:1095A00073050C882C430D8915434A882A43884D3E
:1095B000A8420BD08C4DA84208D0924DA84205D0AD
:1095C000914DA84202D0914DA8420DD122F008053C
:1095D0004A8923F440732A4322F004058A882A43E7
:1095E0008D891D43CB892B4383800483C988818661
:1095F000028430BD70B5028C22F010020284028C0D
:109600008388048B0D8824F4E6464FF6FF7404EA41
:10961000052535430E8922F0200204EA061616437A
:109620004A8804EA02123243694EB04202D06E4EBA
:10963000B04215D122F080064A8923F4406304EA3F
:109640000212324322F040068A8804EA02123243B0
:109650008E8904EA86061E43CB8904EA83033343DA
:1096600083800583C9880187028470BD70B5028C30
:1096700022F480720284028C8388848B0D8824F00B
:10968000730425430E894FF6FF7422F4007204EA36
:10969000062616434A8804EA022232434C4EB04260
:1096A00002D0514EB04215D122F400664A8923F40B
:1096B000405304EA0222324322F480668A8804EA94
:1096C000022232438E8904EA06161E43CB8904EA3D
:1096D0000313334383808583C9888187028470BDE7
:1096E00070B5028C22F480520284058C8288838BB0
:1096F0000C8823F4E6464FF6FF7303EA0424344350
:1097000025F400560D8903EA053535434E8803EAF2
:1097100006362E432E4DA84202D0334DA84205D125
:1097200022F480458A8903EA82122A438280848354
:10973000C988A0F84010068470BD828B22F4406274
:109740008283828B4FF6FF7303EA01210A438283EF
:109750007047828B22F00C028283828B0A438283C1
:109760007047028B22F440620283028B4FF6FF7334
:1097700003EA01210A4302837047F0B5048C24F008
:1097800010040484078B048C4FF6FF7527F473478D
:1097900005EA03333B4305EA02221A430C4B05EA70
:1097A000011698420ED0104B98420BD0B0F1804F6A
:1097B00008D0084B984205D0074B984202D0074B7F
:1097C000984225D124F02001314341F0100124E0DA
:1097D000002C01400004004000080040000C004044
:1097E000001000400014004000340140004C0140D3
:1097F000005001400054014000180040001C00408F
:109800000020004000400140004401400048014069
:1098100024F0A0030B4343F0100102830184F0BD48
:10982000028B22F00C020283028B0A4302837047F0
:1098300070B5048C24F001040484058B048C4FF66D
:10984000FF7606EA0313134325F0F305F84A2B438A
:1098500090420ED0F74A90420BD0B0F1804F08D022
:10986000F54A904205D0F54A904202D0F44A90421F
:1098700002D124F0020201E024F00A020A4342F07D
:1098800001010383018470BD2DE9F84F0D460446A4
:109890000888E74FDFF89CC3DFF89C83DFF89C93D0
:1098A0004988AA882B894FF0804A48B304282FD0D2
:1098B0004FF6FF760828934632D0208C9E4620F43F
:1098C00080502084A38B208C06EA0132009223F47E
:1098D000734306EA0B221A4306EA0E331343BC42D3
:1098E0000AD0644508D0544506D0444504D04C45C0
:1098F00002D0D34A944242D120F40050009940E073
:109900002046FFF795FFE9882046BDE8F84F87E736
:109910002046FFF732FFE9882046BDE8F84F20E7F0
:10992000208C20F480702084B4F81CE0208C06EA9F
:10993000031306EA01222EF0F30E43EA0B0343EA77
:109940000E030092BC420AD0644508D0544506D0AC
:10995000444504D04C4502D0B94A944203D120F486
:109960000070009901E020F42060084340F480700A
:10997000A3832084E9882046BDE8F84FE9E620F477
:109980000240084340F48050A3832084E9882046A5
:10999000BDE8F84FD1E62DE9F0410C460026498894
:1099A0000746012501B90226A288012A00D1022515
:1099B000208823890028384610D0FFF7DEFEE18892
:1099C0003846FFF7CEFE23892A4631463846FFF750
:1099D0002FFFE1883846BDE8F04121E7FFF728FF77
:1099E000E1883846FFF71CFF23892A46314638466E
:1099F000FFF7C3FEE1883846BDE8F041B1E610B597
:109A00000A884B88CC881A438B8823431A430B89D6
:109A10001A434B8989891A430A43A0F8442010BD90
:109A20004FF6FF71818000210180C1804180017269
:109A300070470021018041808180C1800181418186
:109A40008181C18170470021018041800122828093
:109A5000C180018170470021018041808180C180E7
:109A600001814181818170470029018802D041F044
:109A7000010101E021F0010101807047002930F867
:109A8000441F02D041F4004101E0C1F30E01018006
:109A90007047002A828901D00A4300E08A4382810C
:109AA0007047818270471143A0F848107047002A20
:109AB000828901D00A4300E08A438281704701898C
:109AC00021F0070101817047028922F070020A43E8
:109AD0000281704700B50346FFF7F6FF188940F092
:109AE0000700188100BD70B516460D466029044672
:109AF0004FF0010231460AD0FFF79AFE2946204670
:109B0000FFF7E2FF208940F00700208170BDFFF7DA
:109B100034FEF3E730B504894FF6FF7505EA0323F9
:109B20001343E4B20B432343038130BD10B5044615
:109B3000FFF7F0FF208940F07700208110BD10B5BD
:109B40000446FFF7E7FF208940F48040208110BDE4
:109B5000018582827047028822F070020A430280E7
:109B6000704770B50589048B068C25F007050D43F9
:109B70004FF6FC410C4040F201110C434FF6FF71CF
:109B800001EA031126F022061143314305810483C3
:109B9000018470BD028B22F070020A430283704779
:109BA000028B4FF6FF7322F4E04203EA01211143D6
:109BB00001837047828B22F070020A4382837047D0
:109BC000828B4FF6FF7322F4E04203EA0121114336
:109BD000818370470029018802D041F0800101E0B3
:109BE00021F08001018070470029818802D041F076
:109BF000040101E021F0040181807047002981887F
:109C000002D041F0080101E021F008018180704795
:109C10000029818802D041F0010101E021F0010119
:109C200081807047028B22F008020A43028370474A
:109C3000002C0140003401400004004000080040B6
:109C4000000C0040028B4FF6FF7322F4006203EA1F
:109C5000012111430183EAE7828B22F008020A43C3
:109C60008283E4E7828B4FF6FF7322F4006203EAFB
:109C7000012111438183DAE7028B22F004020A43B7
:109C80000283D4E7028B4FF6FF7322F4806203EA6B
:109C9000012111430183CAE7828B22F004020A43A7
:109CA0008283C4E7828B4FF6FF7322F4806203EA5B
:109CB000012111438183BAE7028B22F080020A431B
:109CC0000283B4E7028B4FF6FF73C2F30E0203EA7E
:109CD000012111430183AAE7828B22F080020A430B
:109CE0008283A4E7828B4FF6FF73C2F30E0203EA6E
:109CF0000121114381839AE7028C22F002020A4378
:109D0000028494E7028C22F008020A4302848EE760
:109D1000028C4FF6FF7322F0200203EA0111114377
:109D2000018484E7028C4FF6FF7322F0800203EA7D
:109D30000111114301847AE7028C4FF6FF7322F47C
:109D4000007203EA01211143018470E7028C4FF68F
:109D5000FF7322F4006203EA01211143018466E7E4
:109D6000028C4FF6FF7322F4005203EA01311143D3
:109D700001845CE710B50123048C8B409C43048470
:109D8000038C8A401343038410BD10B50423048C54
:109D90008B409C430484038C8A401343038410BD8E
:109DA00030B50124058C00F118038C40A5430584CF
:109DB00089B108290FD0091FC1F34E00184401686A
:109DC00021F4E041016001684FF6FF7303EA0222CB
:109DD0001143016030BD03EB5100016821F07001B7
:109DE00001600168F4E70029018802D041F0020116
:109DF00001E021F00201018019E70029018802D069
:109E000041F0040101E021F0040101800FE7002985
:109E1000818802D041F0800101E021F08001818041
:109E200005E7028822F00802028002880A430280C5
:109E3000FDE6828822F07002828082880A43828056
:109E4000F5E6028922F00702028102890A430281B3
:109E5000EDE6028922F08002028102890A43028132
:109E6000E5E68184E3E68185E1E68186DFE6018738
:109E7000DDE68187DBE6A0F84010D8E6028822F410
:109E80004072028002880A430280D0E6808ECEE6CD
:109E9000008FCCE6808FCAE6B0F84000C7E6808C21
:109EA000C5E6008DC3E602460020128A0A4200D0B1
:109EB0000120BCE6C9430182B9E602460020138AAC
:109EC00092890B4202EA010202D0002A00D001204E
:109ED000ADE6C9430182AAE6C44910B588420AD159
:109EE00001218C032046FFF780F82046BDE8104092
:109EF0000021FFF77AB8BE49884202D101214C0403
:109F000010E0BC49884202D101218C040AE0BA4920
:109F1000884202D10121CC0404E0B84988420AD128
:109F200001210C052046FFF769F82046BDE81040E6
:109F30000021FFF763B810BD30B50446008A85B034
:109F40000D464CF6FF710840E98801432182A08943
:109F50004EF6F3110840A9882A8911436A89024301
:109F60001143A181A08A4FF6FF410840A98901430E
:109F7000A1826846FEF7DCFF9C48844201D1039829
:109F800000E00298A189090400EBC00101EB001078
:109F9000296801D5490000E08900B0FBF1F0642296
:109FA000B0FBF2F109010B096FF018056B4300EBF0
:109FB0008300A3891D044FF0320306D503EBC000D4
:109FC000B0FBF2F000F0070005E003EB0010B0FB7F
:109FD000F2F000F00F000843208105B030BD4FF4CF
:109FE0001651016000218180C18001810C224281D3
:109FF0008181704710B5028A4FF2FF031A400B8827
:10A000004C8823438C88C9880C4323431343038221
:10A0100010BD0021018041808180C18070470029EE
:10A02000818902D041F4005101E021F40051818185
:10A03000704710B5C1F3421301F01F040121A14084
:10A04000012B07D0022B07D01430002A026805D05C
:10A050000A4304E00C30F8E71030F6E78A43026068
:10A0600010BD002A828A01D00A4300E08A4382821E
:10A070007047028A22F00F020282028A0A43028299
:10A080007047828922F40062828182890A43828138
:10A0900070470029818902D041F0020101E021F0DE
:10A0A000020181817047028A22F020020282028A24
:10A0B0000A43028270470029018A02D041F480419C
:10A0C00001E021F4804101827047C1F308018180E1
:10A0D00070478088C0F308007047818941F0010112
:10A0E00081817047028BD2B20283028B42EA012146
:10A0F00001837047028B02F47F420283028B0A4382
:10A10000028370470029818A02D041F0200101E0DA
:10A1100021F02001818270470029818A02D041F01C
:10A12000100101E021F01001818270470029818A2D
:10A1300002D041F0080101E021F00801818270475E
:10A140000029818902D041F4004101E0C1F30E01F0
:10A15000818170470029818A02D041F4006101E0C9
:10A1600021F4006181827047828A22F00402828297
:10A17000828A0A43828270470029818A02D041F094
:10A18000020101E021F002018182704702460020B5
:10A1900012880A4200D001207047C94301807047ED
:10A1A00070B501F01F0501260024C1F3421306FA21
:10A1B00005F2012B0FD0022B0FD0838A4FEA112119
:10A1C0000088134206FA01F600EA060001D000B149
:10A1D0000124204670BD8389F0E7038AEEE70A0A6E
:10A1E00001219140C94301807047000000380140BF
:10A1F0000044004000480040004C00400050004037
:10A2000010B50120FEF703FFBDE810400020FEF767
:10A21000FEBE1F49086070471D49091F086070474E
:10A220001B498431086070471A4A118821F4607113
:10A23000014311807047174A118821F07F010143C3
:10A2400011807047134A08B52C3A10440090016001
:10A2500008BD104908B52C3908440090008808BD95
:10A260000B489C300068C0B270470A48083001882B
:10A2700041F00101018070470548A0300068C0B27C
:10A28000704704480830018841F00201018070479E
:10A2900004860D422C6C004010B501210C072046AD
:10A2A000FEF7ACFE2046BDE810400021FEF7A6BE3A
:10A2B0002149086270472049086170471F4A1168A8
:10A2C00021F0E0010143116070471B49C1F8A00073
:10A2D00070471A4B1A6822F0030202431A601848AA
:10A2E000026842F004020260012905D020BF016823
:10A2F00021F004010160704730BFF8E70F480168A2
:10A3000041F004010160016841F0020101600C4864
:10A31000016841F00401016030BF7047074A0146FF
:10A32000002052680A4200D00120704703490A68A1
:10A3300042EA80000860704700000E420070004052
:10A3400010ED00E04FF480701D4908604FF4F0708C
:10A350001C4908601C481D4908604FF0BB301C496F
:10A3600008601C481C4908604FF0BB301B4908605E
:10A370001B481C4908601C481C49086018481C49B7
:10A3800008604FF044301B49086041F201004FF073
:10A39000204108604FF44070174908606FF070402A
:10A3A000164908601648804716480047FEE7FEE752
:10A3B000FEE7FEE7FEE7FEE7FEE7FEE7FEE7FEE775
:10A3C0001410024018100240BB44BBB400140140FA
:10A3D00004140140BB4444B4001801400418014077
:10A3E000BBBBBB44001C01404444BBBB041C01403C
:10A3F0000020014004200140040000A0040100A04E
:10A40000BD83000831810008924A00284FF00801FE
:10A41000104601D0FEF73BBCFEF73BBC8D4A00283E
:10A420004FF00401104601D0FEF731BCFEF731BCFD
:10A4300004218848FEF717BC08218648FEF713BCA4
:10A4400038B501210420FEF7BEFD0C20ADF8000058
:10A4500010208DF8030003207E4C8DF80200694621
:10A460002046FEF7AAFB0C212046FEF710FC38BD63
:10A47000784810B5016821F470610160016841F409
:10A48000407101600120FFF7C9FF0120FFF7BCFF09
:10A49000042003F0B3FA0020FFF7C0FF042003F00C
:10A4A000ADFABDE810400020AEE76A4810B501687B
:10A4B00021F470610160016841F440710160002085
:10A4C000FFF7A2FF0020FFF7A9FF042003F096FA90
:10A4D0000120FFF799FF0120FFF7A0FFBDE8104022
:10A4E000042003F08BBA10B500240120FFF796FF7B
:10A4F0005848016821F470610160016841F400610D
:10A500000160012003F07AFA0120FFF77DFF0120AE
:10A5100003F074FA07E0641CE4B2FA2C03D9FFF7E5
:10A52000C4FF012010BDFFF783FF0028F3D1FFF720
:10A530006BFF002010BD10B50020FFF765FF4548F8
:10A54000016821F470610160016841F440710160AB
:10A550000020FFF763FF022003F050FA0120FFF70D
:10A5600053FF022003F04AFABDE8104000204BE7F9
:10A5700010B50020FFF748FF3648016821F47061EC
:10A580000160016841F4407101600120FFF746FF5E
:10A59000022003F033FA0120FFF736FF022003F018
:10A5A0002DFABDE8104000202EE770B50546294879
:10A5B000016821F470610160016841F4407101603B
:10A5C0000020FFF721FF0024E809FFF727FF6806B6
:10A5D000050E022003F012FA0120FFF715FF0220FA
:10A5E00003F00CFA0020FFF70FFF022003F006FA39
:10A5F000641CE4B2082CE7D370BD70B5064615485C
:10A600000024016821F470610160016841F4006177
:10A61000016025460020FFF7F7FE022003F0EEF967
:10A620000120FFF7F1FE6006040EFFF701FF08B1FD
:10A63000641CE4B2012003F0E1F96D1CEDB2082DB9
:10A64000E8D31EB1FFF777FF204670BDFFF790FFFC
:10A65000FAE7000000080140FFF7F2BE10B504461B
:10A66000FFF706FF200AA02101EB4000C0B2FFF770
:10A670009CFFFFF738FFE0B2FFF797FFFFF733FFCC
:10A68000FFF7F6FEA120FFF790FFFFF72CFF002059
:10A69000FFF7B3FF0446FFF708FF204610BD70B573
:10A6A0000D460446FFF7E4FE200AA02101EB40001E
:10A6B000C0B2FFF77AFFFFF716FFE0B2FFF775FFB2
:10A6C000FFF711FF2846FFF770FFFFF70CFFFFF7BA
:10A6D000ECFEBDE87040052003F0AFB92DE9F04174
:10A6E00016460D460746002409E0E00025FA00F072
:10A6F000C1B2381980B2FFF7D2FF641CE4B2B44291
:10A70000F3D3BDE8F0812DE9F0410D46014600206C
:10A7100004464E1908E00702301B401E80B2FFF7C6
:10A720009DFF641C3844E4B2AC42F4D3E9E710B5B1
:10A73000FF20FFF793FF55280AD05521FF20FFF790
:10A74000AEFFFF20FFF78AFF552801D0012010BD82
:10A75000002010BD70B515460E46044608E02046A0
:10A76000641CA4B2FFF77AFF6D1E06F8010BADB2B0
:10A77000002DF4D170BD70B514460D46064606E0B6
:10A7800029783046FFF78BFF761CB6B26D1C641E2D
:10A79000A4B2F5D270BD00000146E348028822F061
:10A7A0003802028002880A4302800121FEF782BD3E
:10A7B0002DE9F041074600244FF48055DA4E03E0BE
:10A7C000641CA4B2AC420FD202213046FEF7DEFD7B
:10A7D0000028F5D039463046FEF794FD002406E007
:10A7E000641CA4B2AC4202D30020BDE8F081012178
:10A7F0003046FEF7CBFD0028F2D03046FEF784FD50
:10A80000C0B2F2E7F0B5074687B0012141F234004B
:10A81000FEF7D9FBE020ADF814001825C34C8DF8E5
:10A82000175003268DF8166005A92046FEF7C5F9D6
:10A83000E0212046FEF72BFABD48002490F82300C3
:10A84000092801D00B281BD101210802FEF7BBFB10
:10A850004FF48050ADF814008DF8166010208DF87C
:10A86000170005A9B348FEF7A8F90220ADF80600C5
:10A870000120ADF80800B048ADF80C50C0F8B04168
:10A88000ADF800404FF48270ADF802004FF4007054
:10A89000ADF80440ADF80A00ADF80E400720A24C18
:10A8A000ADF8100069462046FEF788FC01212046DD
:10A8B000FEF700FDFF20FFF77BFFFF20FFF778FF8B
:10A8C000FF20FFF775FF012F04D01820FFF764FF6A
:10A8D00007B0F0BD3820F9E701469848028822F019
:10A8E0003802028002880A4302800121FEF7E2BC9E
:10A8F0002DE9F041074600244FF480558F4E03E0C8
:10A90000641CA4B2AC420FD202213046FEF73EFDD9
:10A910000028F5D039463046FEF7F4FC002405E067
:10A92000641CA4B2AC4201D300205EE70121304692
:10A93000FEF72CFD0028F3D03046FEF7E5FCC0B250
:10A9400053E770B586B001213820FEF73CFB0121AA
:10A95000C803FEF741FB3820ADF800001826784DFB
:10A960008DF8036003248DF8024069462846FEF7FF
:10A9700024F938212846FEF78AF96D48102255013E
:10A9800090F8230001280AD0052808D0042814D004
:10A99000072812D00C2810D008280ED01CE0202048
:10A9A000ADF800008DF80240664C8DF80320694632
:10A9B0002046FEF702F920210BE0ADF800508DF89B
:10A9C0000240614C8DF8032069462046FEF7F5F8F9
:10A9D00029462046FEF75DF90020ADF80400ADF8E9
:10A9E00008004FF48271ADF806100221ADF80A108C
:10A9F000ADF810600121ADF81200ADF80C10072081
:10AA00004E4CADF81400ADF80E5001A92046FEF7EB
:10AA1000D5FB01212046FEF74DFCFF20FFF768FF24
:10AA20003820FFF759FF06B070BD0146474802883D
:10AA300022F03802028002880A4302800121FEF7D8
:10AA400039BC2DE9F041074600244FF480553F4EB4
:10AA500003E0641CA4B2AC420FD202213046FEF7E0
:10AA600095FC0028F5D039463046FEF74BFC002413
:10AA700005E0641CA4B2AC4201D30020B5E601217C
:10AA80003046FEF783FC0028F3D03046FEF73CFC4E
:10AA9000C0B2AAE630B587B001210820FEF793FACC
:10AAA00001218803FEF798FA4FF46044ADF8144092
:10AAB00018208DF817000320214D8DF8160005A9E8
:10AAC0002846FEF77AF821462846FEF7E0F8684661
:10AAD000FEF7DBFB0020ADF800004FF48271ADF80B
:10AAE0000210ADF808006915ADF80A103821ADF86C
:10AAF0000C10ADF80400ADF80600ADF80E0007200C
:10AB0000124CADF8100069462046FEF757FB0121B4
:10AB10002046FEF7CFFBFF20FFF793FF1020FFF743
:10AB200084FF07B030BD0000003001400008014044
:10AB3000143900200020014000002442003C004065
:10AB4000000C01400010014000140140003800409A
:10AB5000A248A1494160A249416070479F480169EC
:10AB600041F08001016170479C48C068C10701D075
:10AB700001207047410701D502207047C00601D56A
:10AB8000032070470020704710B50446FFF7ECFF24
:10AB9000012803D0002C00D1FF2010BD012002F0BD
:10ABA0002DFF641E2404240CF0D1F5E770B5054692
:10ABB00045F6FF763046FFF7E7FF002812D1874CB5
:10ABC000206940F0020020616561206940F040008A
:10ABD00020613046FFF7D8FF012803D0216921F01A
:10ABE0000201216170BD2DE9F041064640F6FF7774
:10ABF0000D463846FFF7C8FF00280ED1774C206974
:10AC000040F00100206135803846FFF7BDFF012884
:10AC100003D0216921F001012161BDE8F0810088A4
:10AC20007047C10703D030F8010C000A7047008854
:10AC3000C0B270472DE9F04116460F460546002484
:10AC400007E037F814102846FFF7CDFF641CA4B2C4
:10AC5000AD1CB442F5D3E0E710B5002305E030F8B1
:10AC6000024B21F813405B1C9BB29342F7D310BDFB
:10AC70002DE9F05F8246A0F1006088461546B0F5E8
:10AC8000002F4BD2C0F34906C70AC6F58064A5421F
:10AC900000D81446DFF84CB14FF0006000EBC7203D
:10ACA00081464FF480624F49FFF7D6FF00204FF6F0
:10ACB000FF7206E033183BF81310914203D1401C99
:10ACC00080B2A042F6D3A04224D24846FFF76EFFDE
:10ACD00000205A4606E038F810108319401C22F86C
:10ACE000131080B2A042F6D348464FF480623D492B
:10ACF000FFF7A0FFA54211D0281B08EB44080AEB80
:10AD0000440A002685B24FF480647F1CA542C3D854
:10AD10002C46C1E7224641465046E9E7BDE8F09F90
:10AD200070B50D46044600232F4E08E0B44208D209
:10AD30002046FFF776FFE8545B1C9BB2641C9342ED
:10AD4000F4D370BD13B5012201A9FFF791FF1CBD1B
:10AD50002DE9F04707460024A0F1006090460D461B
:10AD6000B0F5002F24D200264FF48069DFF87CA0D4
:10AD700014E0687815F8021B4A4601EB00202AF817
:10AD80001400641CA4B2944206D10024174938462A
:10AD9000FFF76EFF07F50067B61CB6B24645E8D36D
:10ADA000002C05D022463846BDE8F0470F495FE742
:10ADB000BDE8F08710B501680D4A1140B1F1005FA0
:10ADC00009D141680B4C21600068FDF7BDF920688E
:10ADD000BDE81040004710BD230167450020024038
:10ADE000AB89EFCDDC0D006000000880DC05006061
:10ADF0000000FE2F1400006010B54E4C01212046CB
:10AE0000FFF751F82046BDE810400121FFF752B886
:10AE10007FB50D46044601210220FEF7DDF8ADF8AE
:10AE20000440ADF800500024424DADF80640ADF8A6
:10AE3000024069462846FEF76FFB1D218DF80C1075
:10AE40008DF80D4002208DF80E0001208DF80F00C6
:10AE500003A8FDF714FB012211462846FEF719FE50
:10AE600001212846FEF700FE7FBD70B5BF20EFF33D
:10AE7000118480F31188BFF34F8FBFF36F8F2E4D76
:10AE800001212846FFF70FF82C4A012802D150680B
:10AE9000401C50602A4900230868401C0860118843
:10AEA000B1F57A7F02D2491C118004E02549086877
:10AEB000401C0860138024480188491C01800188D7
:10AEC00042F21072914200D9038001212846FEF718
:10AED000F1FF84F3118870BD7FB50D460446012152
:10AEE0001020FEF779F8ADF804400020ADF80050CE
:10AEF000114CADF80600ADF8020069462046FEF799
:10AF00000BFB36208DF80C0001218DF80D1003226B
:10AF10008DF80E208DF80F1003A8FDF7B0FA01226E
:10AF200011462046FEF7B5FD01212046FEF79CFDA7
:10AF30007FBD0000000400400010004014200020ED
:10AF40009820002060010060CE05006030B56423C9
:10AF5000B0FBF3F4B0FBF3F5E4B203FB1500132CE4
:10AF600001D96430C0B200EB90030724B3FBF4F5C1
:10AF700004FB1533B64D1A440D44800715F8015CE7
:10AF80002A4492B203D1032901D2521E92B2B2FBDB
:10AF9000F4F004FB102030BD81070CD16421B0FB1C
:10AFA000F1F201FB120141B94FF4C871B0FBF1F2AB
:10AFB00001FB120008B100207047012070472DE905
:10AFC000F043DFF890820746B0FBF8F3A248160082
:10AFD0000C4601D1002101800188994235D00380BF
:10AFE00040F2B2754FF4B77C4FF4B6790CE02846C6
:10AFF000FFF7D2FF20B1634508D3A3F5B77301E093
:10B00000A3F26D136D1CADB24B45F0D8A5F5FA65F2
:10B01000A571581CDFF838C2A4F8070000250CF110
:10B020000C0C0CE0A079FFF7B7FF08B1012D44D05C
:10B030001CF80500984204D81B1A6D1CADB21C2BDD
:10B04000F0D26D1C65715B1CE370B7FBF8F108FB77
:10B0500011704FF46161B0FBF1F2A270B0FBF1F23C
:10B0600001FB12033C22B3FBF2F36370B0FBF1F37C
:10B0700001FB1300B0FBF2F102FB11002070A0797C
:10B08000E278617900F5FA60FFF760FF2071012E28
:10B0900011D1A179714801F5FA610180617981705E
:10B0A000E178C170217901716D48A17801706178F2
:10B0B000417021788170BDE8F0831D2BC1D31D3B09
:10B0C000BBE710B5FDF7E5FF01226649FFF777FF03
:10B0D000002010BD2DE9F05F99468C46DDE90AABF2
:10B0E000002300F11E019046822902D30120BDE811
:10B0F000F09F40F2B27400F5FA655B4E5B4F08E0DA
:10B100002046FFF749FF08B1334400E03B44641C8C
:10B11000A4B2AC42F4D3ACF1010C4D4F0CF0FF06DD
:10B1200000240C37DFF82CC10EE0385D40F2A3217B
:10B13000484303EBC013A8B2FFF72EFF10B1012C58
:10B1400000D16344641CA4B2B442EED340F2A32104
:10B1500008FB01F003EBC0113E48C9EB4912404225
:10B160000144C2EB092001EB0011CAEB0A1001EB0C
:10B17000800000EB0B0401214FF0C050FDF72CFFC5
:10B180000120FFF795F80C9911B92046FDF78AFFC9
:10B19000FDF7BAFF2046AAE73EB500240420FFF7DA
:10B1A00058F845F25005A84246D001214FF0C05052
:10B1B000FDF712FF0120FFF77BF8FFF721F80120D0
:10B1C000FDF79CFE08E0641CE4B20A2002F035FCA6
:10B1D000FA2C01D300203EBD4120FDF718FE0028C7
:10B1E000F1D04FF48070FDF79AFE0120FDF79CFE30
:10B1F000FDF78AFFFDF78EFF01210846FDF732FFBC
:10B20000FDF782FFFDF737FF47F6FF70FDF757FFA9
:10B21000FDF77AFF002237212A208DE807000F234F
:10B220001B2208211020FFF755FFFDF72BFF2946B1
:10B230000420FFF707F807E0FDF76CFF012108463F
:10B24000FDF710FFFDF760FFFFF73BFF01203EBD5C
:10B25000B4C80308805101001C200020DE000060FB
:10B260009D200020DC1500600085E2018033E101B3
:10B27000FE4991F82310012913D0052911D0042982
:10B280000FD007290DD00C290BD0082909D002298D
:10B2900005D0062903D0092901D00B2903D1FFF7D6
:10B2A00087BAFFF725BB7047F04890F823000128C4
:10B2B00014D0052812D0042810D007280ED00C284E
:10B2C0000CD008280AD0022805D0062803D0092867
:10B2D00001D00B2805D13820FFF75EBA3820FFF7E0
:10B2E000FBBA7047E14890F82300012814D00528E4
:10B2F00012D0042810D007280ED00C280CD0082813
:10B300000AD0022805D0062803D0092801D00B282E
:10B3100005D11820FFF740BA1820FFF7DDBA7047B3
:10B32000D248012190F82300012813D0052811D01C
:10B33000CF4A042812D0072810D00C280ED0082895
:10B340000CD002280DD006280BD009280CD00B28D1
:10B350000AD00CE0C748C0F8941108E0C2F8A41164
:10B3600005E0C2F88C1102E0C348C0F8B011FF201C
:10B370007EE770B5002441F6FF75FF20FFF778FFE8
:10B38000FF2806D0641CFDF7FCFCAC42F5D301207D
:10B3900070BD002070BDB54810B590F823000021A5
:10B3A000012813D0052811D0B14A042812D007284B
:10B3B00010D00C280ED008280CD002280DD006285A
:10B3C0000BD009280CD00B280AD00CE0A948C0F8F3
:10B3D000941108E0C2F8A41105E0C2F88C1102E053
:10B3E000A548C0F8B011FFF7C4FF002802D0FFF74E
:10B3F00097FF012010BD70B505464FF6FF7401E0C0
:10B40000641EA4B2FF20FFF733FFA84202D0002C35
:10B41000F6D102E00CB1002070BDFF2070BD70B508
:10B4200004460D46FE20FFF7E6FF28B1012070BD5F
:10B43000FFF71EFF04F8010B6D1EADB24FF0FF00C9
:10B44000F6D2FFF715FFFF20FFF712FF002070BDB7
:10B4500070B50C460546FFF78CFF08B1012070BDA2
:10B460002046FFF705FFFD2C18D000244FF400768E
:10B47000285DFFF7FDFE641CA4B2B442F8D3FF20A0
:10B48000FFF7F6FEFF20FFF7F3FEFF20FFF7F0FEC9
:10B4900000F01F00052801D0022070BD002070BD03
:10B4A00070B516460C460546FFF73AFFFFF773FFE7
:10B4B00008B1FF2070BD45F04000FFF7D9FE200E17
:10B4C000FFF7D6FEC4F30740FFF7D2FEC4F3072010
:10B4D000FFF7CEFEE0B2FFF7CBFE3046FFF7C8FE27
:10B4E0000C2D02D1FF20FFF7C3FE1F24FF20FFF722
:10B4F000BFFE0106DED5641EE4B2F7D270BD70B5A2
:10B500000546012200210A20FFF7CAFF040004D1EA
:10B5100010212846FFF783FF0446FFF701FF0CB117
:10B52000012070BD002070BD70B5054601220021CC
:10B530000920FFF7B5FF040004D110212846FFF7CA
:10B540006EFF0446FFF7ECFE0CB1012070BD002039
:10B5500070BD1FB56846FFF7E7FF10B1002004B0CB
:10B5600010BD9DF800100120B0EB911F09D19DF88E
:10B5700008209DF8091000EB02200844000480090F
:10B58000EDE79DF805009DF80A1000F00F0000EBB4
:10B59000D1109DF809109DF8072001F0030100EB80
:10B5A00041019DF80800800900EB82009DF806200B
:10B5B00002F0030200EB8220401CC91F8840CEE746
:10B5C0002DE9F843294890F82300012812D00528D6
:10B5D00010D004280ED007280CD00C280AD0082838
:10B5E00008D0022809D0062807D0092805D00B2842
:10B5F00003D005E0FFF7A5F902E00120FFF702F90B
:10B60000FFF752FE0024FF20FFF732FE641CA4B2B5
:10B610000A2CF8D30224002195220846FFF740FFA8
:10B620000546012802D0641EA4B2F4D2134E0027AE
:10B63000012D37706FD187224FF4D5710820FFF7A5
:10B640002FFF4FF6FE78012829D001220021372054
:10B65000FFF726FF012200212920FFF721FF012803
:10B660005AD8022030704446012209E014390020E3
:10B670000080224200002242000024421E200020BE
:10B6800000213720FFF70CFF012200212920FFF7BE
:10B6900007FF05004DD0641EA4B2E5D249E00024A6
:10B6A0006F46FF20FFF7E4FD3855641CA4B2042C5C
:10B6B000F7D39DF80200012843D19DF80300AA2882
:10B6C0003FD144464FF08048012200213720FFF748
:10B6D000E7FE012241462920FFF7E2FE050002D0E5
:10B6E000641EA4B2F0D2B4B1012200213A20FFF7C7
:10B6F000D7FE80B90024FF20FFF7BAFD3855641C3F
:10B70000A4B2042CF7D39DF80000400601D5062012
:10B7100000E00420307014E0012030704446012223
:10B7200000211046FFF7BCFE050002D0641EA4B243
:10B73000F5D22CB1012251021020FFF7B1FE00B169
:10B740003770FFF7EDFDFFF7CDFD307810B1002029
:10B75000BDE8F8830DB12846FAE7AA20F8E72DE9FD
:10B76000F0410646374815460078062800D04902C1
:10B770004FF40077012D4FF0010219D01220FFF78E
:10B780008FFE39463046FFF74AFE6D1E044606F529
:10B79000007615F0FF0501D0002CF2D00122002127
:10B7A0000C20FFF77DFEFFF7BBFD2046BDE8F081D2
:10B7B0001120FFF775FE0400F5D139463046FFF73A
:10B7C0002EFE0446EFE770B506461E4815460C46A9
:10B7D0000078062800D04C02012D13D0012809D092
:10B7E000012200213720FFF75BFE012229461720A6
:10B7F000FFF756FE012221461920FFF751FE0400F3
:10B800000AD01AE0012221461820FFF749FE040061
:10B8100013D1FE2130460DE0FC213046FFF718FE23
:10B820006D1E06F5007615F0FF0501D00028F3D057
:10B83000FD210020FFF70CFE0446FFF771FD2046B6
:10B8400070BD00001E200020794810B5016821F469
:10B8500070610160016841F4407101600120FEF7F0
:10B86000DDFD012002F0CAF80120FEF7CDFD012028
:10B8700002F0C4F80020FEF7D1FD0A2002F0BEF865
:10B880000020FEF7C1FDBDE810400A2002F0B6B866
:10B89000674810B5016821F470610160016841F4E6
:10B8A000407101600020FEF7AFFD012002F0A6F814
:10B8B0000020FEF7B3FD012002F0A0F80120FEF702
:10B8C000A3FD0A2002F09AF80120FEF7A7FDBDE8CB
:10B8D00010400A2002F092B870B50546544801683D
:10B8E00021F470610160016841F4407101608024BD
:10B8F0002C4201D1002000E00120FEF78FFD052041
:10B9000002F07CF80120FEF77FFD052002F076F8BA
:10B910000020FEF779FD012002F070F86408E7D1FD
:10B92000BDE87040FEF7DFBD70B504464048002515
:10B93000016821F470410160016841F40041016037
:10B940004FF47A7607E0641EE4B201D2042070BDA1
:10B95000304602F053F8FEF76FFD0028F3D028467A
:10B9600070BD2DE9F04706460020307090460F4626
:10B970000120FEF753FD2E4D286820F470602860EA
:10B98000286840F40060286080240120FEF73CFD18
:10B99000012002F033F84046FFF7C6FF814603203E
:10B9A00002F02CF8286820F470402860286840F4E1
:10B9B00040502860FEF73CFD10B1307820433070D5
:10B9C0000020FEF721FD012002F018F86408DCD108
:10B9D000286820F470602860286840F4407028606F
:10B9E000BFB10120FEF71AFD012002F007F8012087
:10B9F000FEF70AFD052002F001F80020FEF704FD25
:10BA00000120FEF70BFD142001F0F8FF4846BDE8C9
:10BA1000F0870020E6E710B5FFF716FF0020FFF7DC
:10BA20005BFF002803D1BDE81040062054E710BD9D
:10BA300000080140FE494000087040F001004870D5
:10BA4000704738B5044601212020FDF7BCFA0821D3
:10BA5000ADF8001010218DF803100321F54D8DF87D
:10BA6000021069462846FDF7A8F808212846FDF788
:10BA70000EF92046FFF7DEFF38BDFFF709BF70B5AE
:10BA80000546FF20002340F231140FE0EA5C5040ED
:10BA90000822060602D584EA400000E04000521E5B
:10BAA000C0B212F0FF02F4D15B1CDBB28B42EDD3CB
:10BAB00070BD10B51446FFF7E2FFA04201D002208E
:10BAC00010BD002010BD7CB50D460446002168461F
:10BAD000FFF747FF90B9002211460DF10100FFF773
:10BAE00040FF58B90022294601A8FFF73AFF28B9BC
:10BAF0009DF8042002216846FFF7DBFFBDF8001027
:10BB000049BA21807CBD10B5FFF79EFEC848407839
:10BB1000BDE81040FFF7E0BE70B50446000AFFF72D
:10BB2000DBFE0546E0B2FFF7D7FE284370BD10B537
:10BB3000FFF78AFEBE480078BDE81040FFF7CCBE94
:10BB4000F8B50546FFF7F3FF06464FF45E50FFF7E2
:10BB5000E3FF50EA060411D1FFF7D5FF04000DD131
:10BB6000642200216846FFF7AEFF040006D10022E0
:10BB700001210DF10200FFF7A6FF0446FFF788FE42
:10BB80001CB900984FEA304028602046F8BD70B5D7
:10BB90000546FFF7CCFF04000FD14FF22D30FFF721
:10BBA000BBFF040009D1FFF7AEFF040005D100225E
:10BBB00001212846FFF787FF0446FFF769FE20466C
:10BBC00070BD10B5FFF7B3FF040004D143F241008C
:10BBD000FFF7A2FF0446FFF75BFE204610BD10B53D
:10BBE0002DF06CFE94492DF05CFC94492DF059FC2D
:10BBF000BDE8104092492DF086BC10B52DF05EFED8
:10BC000090492DF04EFC8D492DF04BFC8C492DF0C8
:10BC10007AFCBDE810408C492DF03DBC2DE9FC417B
:10BC20001D46174688460646FFF781FF04002FD1C0
:10BC30005FB1012F06D0022F01D0802428E042F20C
:10BC4000164004E042F20B4001E04FF41050FFF7C1
:10BC500063FF040007D01BE0FFF755FF040005D089
:10BC6000012001F0EAFE6D1EEDB2F5D20DB114B166
:10BC70000EE004240CE0002211466846FFF723FF83
:10BC800005460022012101A8FFF71DFF40EA050437
:10BC9000FFF7FEFD54B9BDF80000FFF7AEFF3060BE
:10BCA000BDF80400FFF79BFFC8F800002046BDE880
:10BCB000FC812DE9FC41984615460E460746FFF7E4
:10BCC00036FF040023D15DB1012D06D0022D01D035
:10BCD00080241CE042F6104004E042F60D4001E0F2
:10BCE00042F60640FFF718FF040010D1FFF70BFFE4
:10BCF00004000CD1424600216846FFF7E4FE040030
:10BD000005D10022012101A8FFF7DDFE0446FFF75F
:10BD1000BFFD4CB9BDF80000FFF76FFF3860BDF8FC
:10BD20000400FFF75CFF30602046C0E730B4029C9F
:10BD300023B1012B05D030BC80207047234630BC96
:10BD4000B7E7234630BC69E770B50E460546FFF7F6
:10BD5000EEFE04004BD17DB3012D1AD0022D45D14A
:10BD6000052E43D2DFE806F003060C0F120042F264
:10BD70002F0001E042F22D10FFF7CEFE044636E020
:10BD800042F22B20F8E742F22930F5E742F22A701E
:10BD9000F2E7052E2AD2DFE806F00306090C1000B0
:10BDA00042F22400E8E742F22610E5E742F22020C2
:10BDB000E2E742F22230DFE702E042F22170DBE705
:10BDC000052E13D2DFE806F00306090C0F0042F23D
:10BDD0003200D1E742F23010CEE742F23620CBE714
:10BDE00042F23430C8E742F23770C5E78024FFF7EB
:10BDF0004FFD204670BD7CB50D460646FFF797FE09
:10BE0000040031D14FF46040FFF786FE04002BD1CF
:10BE1000FFF779FE040027D1002211466846FFF79C
:10BE200052FE040020D10022012101A80EE00000F2
:10BE30001F200020001401400000C84200002041E3
:10BE400000FF7F4700002F430000E143FFF73BFE68
:10BE5000040009D1BDF80000FFF7CFFE3060BDF847
:10BE60000400FFF7BCFE2860FFF712FD20467CBDF2
:10BE700010B5FFF75CFE040004D143F26D00FFF73C
:10BE80004BFE0446FFF704FD204610BD10B5FFF73A
:10BE90004EFE040004D143F26600FFF73DFE044667
:10BEA000FFF7F6FC204610BD70B5FFF740FE0546D3
:10BEB00043F2A200FFF730FE40EA0504FFF7E8FC7A
:10BEC0001CB94CF2503001F099FD204670BD10B500
:10BED000234C4FF080502060224801F08FFDA014C9
:10BEE0002060BDE810404CF2503001F087BD38B5FD
:10BEF000010A8DF800108DF8010002216846FFF755
:10BF0000BEFD04469DF80000FFF7E6FC002808D1BE
:10BF10009DF80100FFF7E0FC002802D12046FFF762
:10BF2000DBFC38BD10B510492DF063FA0F492DF038
:10BF3000EAFA0F492DF0B5FA2DF0FCFC80B210BDE5
:10BF400010B50C492DF0DFFA09492DF0AAFA2DF0B1
:10BF5000F1FC80B210BD08480068C0F38020704733
:10BF600010140140A08601000000344200002F435D
:10BF700000FF7F470000C842080C014038B50C465E
:10BF8000054602226946442021F0A6FEBDF80010B5
:10BF900045F273525143284A02EB51312960BDF8F2
:10BFA000021043F609525143244A02EB51312160F9
:10BFB00038BD01222249442021F017BF70B50C463C
:10BFC0000546FFF7F6FF002807D10A2001F035FDEE
:10BFD00021462846BDE87040D0E770BD1CB5044638
:10BFE00089208DF8000001226946442021F0FDFEE1
:10BFF00000280BD10A2001F020FD022201A94420D3
:10C0000021F06AFE01994FEA314121601CBD08B55B
:10C010006846FFF7E3FF08BD094920B1E02008703A
:10C0200040F6C41003E0FD20087044F6206048800C
:10C0300070474420704700003850FFFF90E8FFFF32
:10C040002220002070B50024254621F014FF4FF473
:10C050007A7602E0304601F0F0FCFFF7D8FF20B11D
:10C060002046641CE4B20328F4D3032C00D8022534
:10C07000284670BD2DE9FC4101A96846FFF79EFFE7
:10C08000114EDFF84880124D44B26CB12878401C44
:10C0900028702878052804D9002129703160C8F853
:10C0A00000102046BDE8FC810098642790FBF7F063
:10C0B0002DF0FBFB3060019890FBF7F02DF0F5FBC5
:10C0C000C8F80000E5E70000C0210020C4210020DE
:10C0D000180000602DE9F041054601F042FAF94EE2
:10C0E000B068401CB0603068F74F10B1706930B371
:10C0F0002BE03560B068012827D1002404EB8400D0
:10C1000007EB800000F0C0FE641C142CF6D3EF484F
:10C1100000F0BAFEED48143000F0B6FEEB482830CF
:10C1200000F0B2FEE9483C3000F0AEFEE748503087
:10C1300000F0AAFEE54870631430B06305E0306893
:10C14000E96AC06A884200D83560706A0121401CE3
:10C150007062E86A326981401143316100EB80000E
:10C1600007EB8000291D00F09DFE01F006FA7069C2
:10C1700000280CD03068E96AC06A884207D2D449E6
:10C180004FF080500860BFF34F8FBFF36F8FBDE853
:10C19000F0812DE9FF5F8346DDE90E87994616465B
:10C1A0008A46900001F00EFA05001AD0542001F0E2
:10C1B00009FA040012D025630021CDE90241CDE93E
:10C1C00000874B4632465146584600F0C8FD20468F
:10C1D000FFF780FF012004B0BDE8F09F284601F082
:10C1E0004AFA4FF0FF30F6E770B5044601F0B9F9AE
:10C1F000B44D04B92C68201D00F078FE58B9E06AEF
:10C20000B14A00EB800152F8211021B9012181408F
:10C21000286988432861A06A18B104F1180000F069
:10C2200065FE686A401C68622868844208D1A74895
:10C23000211D3C3000F036FE6868401C686007E055
:10C24000A868401EA860204600F0DAFD00F0CBFD93
:10C2500001F093F9686900280AD02868844207D160
:10C260009B494FF080500860BFF34F8FBFF36F8F33
:10C2700070BD2DE9F041934F0026386B38B1B86995
:10C28000401CB861F86900B1012630467FE7FD68BF
:10C290006D1CFD6008D1786BB96B7963B863386A3F
:10C2A000401C386200F09FFDB86ADFF81C828542AE
:10C2B00009D3786B006880B1786BC068C468606827
:10C2C00085420DD2B8623868C06A00EB800158F828
:10C2D00021000128D6D90126D4E74FF0FF30F1E73D
:10C2E000201D00F003FEA06A18B104F1180000F050
:10C2F000FDFDE06A01213A6981401143396100EB9B
:10C30000800108EB8100211D00F0CCFDE06A396856
:10C31000C96A8842CDD30126CBE72DE9F047002436
:10C32000274601F01EF9674D286B401E2863286BD5
:10C33000F0BBA868654928310126C8B3DFF88891A9
:10C340008846D8F80010E9B1D8F80C00C46804F1A8
:10C35000180000F0CBFD201D00F0C8FDE06A2A693E
:10C3600006FA00F11143296100EB800109EB81001D
:10C37000211D00F097FDE06A2968C96A8842E0D370
:10C38000EE61DEE70CB100F02EFDAC693CB1FFF7C9
:10C3900070FF00B1EE61641EF9D10020A861E86968
:10C3A00030B14B49012738070860BFF34F8F00E0D9
:10C3B00001E0BFF36F8F01F0E0F83846BDE8F08789
:10C3C0002DE9F0413F4E0F460446F5683068001DE8
:10C3D00000F08CFD38B9306890F82C1001208840AE
:10C3E000316981433161601C08D13FB13168BDE8DA
:10C3F000F04136485030091D00F054BD30682C44DF
:10C40000AC424460316805D2B06BBDE8F041091D13
:10C4100000F054BD706B091D00F050FDB06A8442FD
:10C4200000D2B462B3E62748016B491C0163704730
:10C4300070B50E4605460023FFF7F5FF2148C26898
:10C440002C68A119944202D98C4202D804E08C4293
:10C4500001D8914200D9012329601BB1881A00211B
:10C46000FFF7AEFFFFF759FF002807D118494FF03B
:10C4700080500860BFF34F8FBFF36F8F70BD10B552
:10C48000020009D0FFF7CFFF00211046FFF798FF09
:10C49000FFF743FF002807D10D494FF08050086097
:10C4A000BFF34F8FBFF36F8F10BD10B5044601F07F
:10C4B00058F80CB903480468E46A01F05EF82046B5
:10C4C00010BD000028200020E815006078170060EB
:10C4D00004ED00E0BF22EFF3118182F31188BFF376
:10C4E0004F8FBFF36F8F08B9F7480068C06A81F3B8
:10C4F000118870472DE9F04100260D4604461429A5
:10C5000000D3132501F02DF8EF4F04B93C68606C9F
:10C51000A8423FD03968854206D98C4207D0396895
:10C52000C96AA94202D902E08C4200D10126E16A1F
:10C530008846884200D1E5626564A069002802DB74
:10C54000C5F11400A061E14D08EB8800616905EBBD
:10C550008000814215D1201D00F0C8FC012120B9C6
:10C560003A6901FA08F082433A61E06A3A69814027
:10C570001143396100EB800005EB8000211D00F0C4
:10C5800091FC3EB1D2494FF080500860BFF34F8F0D
:10C59000BFF36F8FBDE8F04100F0EFBF10B5CA4C9C
:10C5A000206B10B10120E0618AE70020E061206883
:10C5B0004FF0A532006B0168914208D14168914269
:10C5C00005D18168914202D1C068904204D02168AF
:10C5D0002068343117F095F92069BC49B0FA80F031
:10C5E000C0F11F0000EB800001EB800000F10802A9
:10C5F000416849684160914201D149684160C86819
:10C6000020605DE770B5044600F0ABFFAE4D04B9A5
:10C610002C68201D00F06AFC58B9E06AAB4900EBB9
:10C62000800251F8221021B90121814028698843F4
:10C630002861A06A18B104F1180000F057FC211D10
:10C64000A44800F02FFC00F098FF686928B100F0C2
:10C6500088FF00F0C8FB00F090FF2868844209D1F1
:10C66000686940B19A494FF080500860BFF34F8F1E
:10C67000BFF36F8F70BD9748A9680068884202D1E8
:10C680000020286070BDBDE8704087E770B50400E9
:10C690002BD08D4D2868844227D000F062FF2046C1
:10C6A00000F0B8FBE8B1201D00F020FCE06A012199
:10C6B0002A69814011432961844900EB800001EB24
:10C6C0008000211D00F0EEFBE06A2968C96A8842FB
:10C6D00007D37F494FF080500860BFF34F8FBFF3FF
:10C6E0006F8FBDE8704000F048BF70BD2DE9F0418C
:10C6F00004460026BF20EFF3118580F31188BFF3B5
:10C700004F8FBFF36F8F204600F084FBF0B16E4F68
:10C71000386B20B16F4804F11801283814E0E06A42
:10C720003968C96A884200D30126201D00F0DEFB6B
:10C73000E06A01213A69814011433961634900EBA4
:10C74000800001EB8000211D00F0ACFB85F3118817
:10C7500030461CE55D4E4FF080545D4D00F068FBA7
:10C7600030680128FAD92C60BFF34F8FBFF36F8F69
:10C77000F4E71CB5544800242C30CDE90040234692
:10C78000802255A15648FFF704FD012811D1BF2092
:10C7900080F31188BFF34F8FBFF36F8F4A484FF07C
:10C7A000FF31816201214161C460BDE81C4000F09D
:10C7B000C4BE1CBDBF2080F31188BFF34F8FBFF3F1
:10C7C0006F8F41490020486100F0CABE3E48C068F2
:10C7D00070473D48C06870473B488068704708B95B
:10C7E0003948006834307047024610B536480C4668
:10C7F00001681046183100F061FB2046BDE810408A
:10C800000121DDE5034641F0004010B52E491446F4
:10C810000A68906109681846183100F043FB204609
:10C82000BDE810400121CBE52DE9F041C068C468A6
:10C8300004F11800074600F059FB234D286B012630
:10C8400060B124483946283800F02CFBE06A29689A
:10C85000C96A884212D90120EE6198E4201D00F0D7
:10C8600045FBE06A2A6906FA00F11143296117497C
:10C8700000EB800001EB8000211DE5E7002086E44D
:10C8800070B541F000410160C46800F02FFB201D2D
:10C8900000F02CFB0C4DE06A01262A6906FA00F133
:10C8A00011432961094900EB800001EB8000211D43
:10C8B00000F0F8FAE06A2968C96A884202D90120C2
:10C8C000EE6170BD002070BD28200020E8150060DA
:10C8D00004ED00E0C817006049444C45000000002A
:10C8E00055C70008FE490A6A0260C968416070477E
:10C8F00070B50D46044600F034FEF949CA68286850
:10C90000431C0FD02368096A8B4202D061689142B0
:10C910000AD96168511A814206D2401A286020461D
:10C92000FFF7E0FF002400E0012400F026FE20468F
:10C93000C9E7EB490120C861704708B9E8480068B9
:10C940000021006B01E0401C491C0278A52AFAD0A6
:10C95000C1F38F007047E24800687047E0484169C2
:10C9600019B1006B18B100207047012070470220F8
:10C97000704770B50400A6D0D94DE06A2968C96A2D
:10C980008842A0D2A069002804DB2868C06AC0F1F0
:10C990001400A061E06AD34E00EB8000616906EBF1
:10C9A000800081421FD1201D00F0A0FA012150B962
:10C9B000E06A00EB800256F8222022B92A6901FAC7
:10C9C00000F082432A612868C06AE0622A698140D7
:10C9D0001143296100EB800006EB8000211DBDE8BA
:10C9E000704000F05FBA2868C06AE0626BE770B51B
:10C9F00004004FF000002CD0A16C491EA164636CB0
:10CA0000E26A9A4225D0002923D1201D00F06EFA57
:10CA1000B44AB349012350B9E06A00EB800552F8EB
:10CA2000255025B90D6903FA00F085430D61606C4E
:10CA3000E062C0F11400A061E06A0D6983402B43FD
:10CA40000B6100EB800002EB8000211D00F02AFA50
:10CA5000012038E7A24908680A688069D26A096833
:10CA6000C2F114028A6170479D49086818B10868CC
:10CA7000826C521C82640868704770B50C4606468A
:10CA800000F06FFD964D2868C06C80B929680120C0
:10CA900081F850005CB101212046FFF791FC9249DA
:10CAA0004FF080500860BFF34F8FBFF36F8F00F0DF
:10CAB00064FD00F056FD2868C46C002034B116B146
:10CAC0002968C86402E02A68611ED164296881F877
:10CAD000500000F052FD2046F5E62DE9F0411E46DB
:10CAE00015468846074600F03CFD7D4C206890F8CE
:10CAF0005000022814D02068C16CB943C164216879
:10CB0000012081F850005EB101213046FFF758FC4A
:10CB100075494FF080500860BFF34F8FBFF36F8FA0
:10CB200000F02BFD00F01DFD15B12068C06C2860E1
:10CB3000206890F8500001280DD02068C16C21EACF
:10CB40000801C16401252168002081F8500000F02F
:10CB500014FD284666E40025F5E72DE9F0411F465F
:10CB600090460D460446012600F0FBFC0FB1E06C38
:10CB7000386094F85000022184F85010B8F1050F85
:10CB80000ED2DFE808F00D03060C0A00E16C294321
:10CB900001E0E16C491CE16402E0022803D0E56495
:10CBA000012802D020E000261EE0201D00F09EF9A2
:10CBB0004B4DE06A01212A698140114329614949AD
:10CBC00000EB800001EB8000211D00F06BF9E06AB2
:10CBD0002968C96A884207D943494FF080500860E4
:10CBE000BFF34F8FBFF36F8F00F0C7FC304619E4DF
:10CBF0002DE9F04704464FF00108BF20EFF31185FF
:10CC0000DDF8209080F31188BFF34F8FBFF36F8F53
:10CC10000BB1E06C186094F85000022384F8503097
:10CC2000052A0ED2DFE802F00D03070C0A00E26CC1
:10CC30000A43E26405E0E16C491C01E0022803D0EC
:10CC4000E164012803D027E04FF0000824E0244EDF
:10CC5000306B012778B104F11801244800F022F963
:10CC6000E06A3168C96A884216D9B9F1000F12D05A
:10CC7000C9F8007010E0201D00F038F9E06A326950
:10CC800007FA00F111433161164900EB800001EB16
:10CC90008000211DE2E7F76185F311884046BDE879
:10CCA000F0872DE9F04104468846BF20EFF3118755
:10CCB00080F31188BFF34F8FBFF36F8F94F850103C
:10CCC000022084F85000E06C401CE06401292DD162
:10CCD000034D286B0126C0B104F11801034807E099
:10CCE00028200020E815006004ED00E0A017006097
:10CCF00000F0D8F8E06A2968C96A884216D9B8F104
:10CD0000000F12D0C8F8006010E0201D00F0EEF80F
:10CD1000E06A2A6906FA00F111432961574900EBDC
:10CD2000800001EB8000211DD9E7EE6187F31188B7
:10CD30000FE510B558B1044600F013FC94F850000C
:10CD4000022807D0002400F018FC20462CE44C48B0
:10CD50000468F1E7002084F850000124F3E72DE98E
:10CD6000F0470E46DDE90984174682469100994650
:10CD7000089DA522206B2CF0AFF96FF00301206B0A
:10CD800001EB8701084420F0070700202218315CDE
:10CD900082F83410315C11B1401C1028F6D3002603
:10CDA00084F84360142D00D31325E562C4E91156BD
:10CDB000201D00F074F804F1180000F070F82461F0
:10CDC000C5F114006462A061E66484F850604A46CC
:10CDD0005146384600F09AFB2060B8F1000F01D0B0
:10CDE000C8F800405BE72648416B096829B1416BF0
:10CDF000C968C9684968816270474FF0FF31FAE736
:10CE000010B50446006B00F036FC2046BDE810402B
:10CE100000F031BC1B4B426900219A4206D1806A66
:10CE2000A3F12802904201D000B9012108467047C1
:10CE300070B5144E124D143E1CE0FFF7F4FA306842
:10CE400020B10024FFF769FAA4B901E00124F9E751
:10CE500000F087FBF068C468201D00F047F8A86860
:10CE6000401EA8606868401E686000F086FB20468F
:10CE7000FFF7C6FF68680028DFD124E5E8150060E9
:10CE800028200020C817006000F108014FF0FF3291
:10CE9000C0E90112C16001610021016070470021F9
:10CEA0000161704742684A6093688B60936859607B
:10CEB000916008610168491C0160704730B50C68D9
:10CEC000621C02D000F1080202E0026904E01A4686
:10CED00053681D68A542FAD953684B6099608A600F
:10CEE000516008610168491C016030BDD0E9013220
:10CEF00001699A60D0E901235A604A68824201D1EF
:10CF000082684A60002202610868401E086070471B
:10CF100070B50D46044600F024FBD4E90F122068DA
:10CF200001FB020060600020A0632068A060014651
:10CF3000E06B401E00FB0210E0604FF0FF3084F811
:10CF4000440084F8450004F110004DB1FFF79CFF48
:10CF500004F12400FFF798FF00F00FFB012070BDE3
:10CF600021690029F8D0FFF75FFC0028F4D0FF49C1
:10CF70004FF080500860BFF34F8FBFF36F8FEBE728
:10CF800070B50D00064612D006FB05F0483000F0E3
:10CF900019FB040009D004F1480120464DB101609D
:10CFA000C0E90F650121FFF7B3FF204670BD0020E7
:10CFB000ECE70060F4E72DE9F041044600F0D1FA17
:10CFC00094F9455004F1240609E0606A48B13046FE
:10CFD000FFF72AFC08B1FFF7ACFC6D1E6DB2002D07
:10CFE000F3DC4FF0FF3684F8456000F0C6FA00F03D
:10CFF000B8FA94F9445004F1100709E0206948B1E7
:10D000003846FFF711FC08B1FFF793FC6D1E6DB2B7
:10D01000002DF3DC84F84460BDE8F04100F0ADBAC7
:10D020002DE9F041856B174604460026026C82B15B
:10D03000C7B1E0682CF03EF8E168206C091AE160A5
:10D040002268914202D26168081AE060022F16D06D
:10D0500017E02068A8B96068FFF7C9FC0646002001
:10D0600060600EE0A0682CF025F8216CA0680844F0
:10D07000A0606168884204D32068A06001E005B127
:10D080006D1E6D1CA5633046BDE8F0812DE9FF4F94
:10D09000002683B09A468B460446B1464FF080572F
:10D0A000DFF8C88200F05DFAA06BE16B884206D31E
:10D0B000BAF1020F03D00598C8B1DEB11EE05246A6
:10D0C00059462046FFF7ACFF616A19B104F124000C
:10D0D000FFF7AAFB28B1C8F80070BFF34F8FBFF36A
:10D0E0006F8F00F04AFA012007B0BDE8F08F00F022
:10D0F00044FA21E06846FFF7F5FB012600F03DFA0F
:10D10000FFF791F900F02DFA94F94400401C01D189
:10D1100084F8449094F94500401C01D184F845906E
:10D1200000F02BFA05A96846FFF7E2FB30B1204674
:10D13000FFF741FFFFF7F1F80020D5E700F011FA03
:10D14000A06BE16B884201D1012500E0002500F0D1
:10D1500014FA95B104F110000599FFF745FB20463C
:10D16000FFF729FFFFF7D9F800289BD1C8F8007016
:10D17000BFF34F8FBFF36F8F94E72046FFF71BFF7E
:10D18000FFF7CBF88EE710B5024600210120FFF72C
:10D19000F7FE041E07D00021416001600B460A46DD
:10D1A000C160FFF773FF204610BD10B50446FFF7BE
:10D1B000D2FB616888420BD1E068401EE06005D177
:10D1C00000231A4619462046FFF760FF012010BDD4
:10D1D000002010BD30B4026C0B46002A0BD0C16891
:10D1E0001144C1604468A14201D30168C16030BCF0
:10D1F00018462BF05FBF30BC70472DE9FF4F00266B
:10D2000083B09A468B460446B1464FF08057DFF80C
:10D210005C8100F0A6F9A56B35B359462046E66857
:10D22000FFF7D8FFBAF1000F11D0E660606A50B185
:10D2300004F12400FFF7F8FA28B1C8F80070BFF332
:10D240004F8FBFF36F8F00F098F901204CE76D1EF0
:10D25000A563206810B9FFF707FC6060206900280B
:10D26000F1D004F11000E5E7059808B11EB106E021
:10D2700000F083F927E06846FFF734FB012600F051
:10D280007CF9FFF7D0F800F06CF994F94400401CE9
:10D2900001D184F8449094F94500401C01D184F8F0
:10D2A000459000F06AF905A96846FFF721FB0028C0
:10D2B00020460AD0FFF77FFEFFF72FF8204600F048
:10D2C0000FF90028A5D000200EE700F009F9D8B129
:10D2D000206830B900F045F96068FFF74AFB00F0BC
:10D2E0004CF904F124000599FFF77EFA2046FFF778
:10D2F00062FEFFF712F800288BD1C8F80070BFF368
:10D300004F8FBFF36F8F84E72046FFF754FEFFF780
:10D3100004F87EE770B50D460446FFF71CFB616814
:10D32000884204D1E068401CE060012070BD002309
:10D330002A4619462046FFF760FF0028F6D0E1682C
:10D34000491CE16070BD2DE9F04104461746BF203D
:10D35000EFF3118680F31188BFF34F8FBFF36F8F08
:10D36000A06BE26B904208D3022B01E004ED00E0D9
:10D3700003D0002086F3118886E694F945501A46BA
:10D380002046FFF74DFE681C04D06D1C84F8455004
:10D390000120EFE7606A0028FAD004F12400FFF7CB
:10D3A00043FA0028F4D0002FF2D001203860EFE7D4
:10D3B00070B50D46BF21EFF3118481F31188BFF3DF
:10D3C0004F8FBFF36F8F816BC26B8A4217D990F971
:10D3D0004520491C8163511C04D0521C80F8452013
:10D3E00001200DE0416A0029FAD02430FFF71CFA31
:10D3F0000028F5D0002DF3D001202860F0E70020B0
:10D4000084F3118870BD2DE9F04104469046BF2099
:10D41000EFF3118780F31188BFF34F8FBFF36F8F46
:10D42000A66BEEB194F944502046FFF7D3FE761E6A
:10D43000A663681C04D06D1C84F84450012010E0E1
:10D4400020690028FAD004F11000FFF7EDF9002858
:10D45000F4D0B8F1000FF1D00121C8F80010EDE7C9
:10D46000002087F311880FE670B50446BF20EFF364
:10D47000118580F31188BFF34F8FBFF36F8FA06BBF
:10D4800028B12046E668FFF7A5FE0120E66085F397
:10D49000118870BD10B5044600F063F8A46B00F06D
:10D4A0006CF8204610BD10B5044600F05AF8D4E9D7
:10D4B0000E10441A00F061F8204610BD806B7047D2
:10D4C00000F0D9B8806B08B1002070470120704788
:10D4D000816BC06B814201D10120704700207047F1
:10D4E00010B5044600F03DF8A06B20B1002400F018
:10D4F00044F8204610BD0124F9E70000BF2080F366
:10D500001188BFF34F8FBFF36F8FFEE710B5031F76
:10D510004FF080741C601B1F21F001011960191F5E
:10D52000244B0B60143940380A6010BD4FF0E020E6
:10D5300021494161072101617047204810B5016808
:10D5400041F47F010160016841F07F410160FFF714
:10D55000EDFF1B4900200860FAF70CFE002010BD0B
:10D560007047BF2080F31188BFF34F8FBFF36F8FD9
:10D5700013480168491C0160704711490868401E42
:10D58000086001D180F31188704710B5BF2080F387
:10D590001188BFF34F8FBFF36F8FFEF76AFE20B184
:10D5A00006494FF080501C390860002080F3118834
:10D5B00010BD0000FDD400083F19010020ED00E07F
:10D5C0001C0000602DE9F04104460025FEF72BFF0A
:10D5D000394E06F10801706801F1080368B937484F
:10D5E000002720F00700C1E900074EF6F872C3E9F2
:10D5F0000072C0E90032012070603CB1083460075D
:10D6000004D004F00700C0F108000444601E4EF688
:10D61000F772904227D2284A0968083201E00A4688
:10D6200001464868A04202D208680028F7D1994212
:10D6300019D015680868106048680835001B102864
:10D640000DD90B1958601C484C6008305C6800E02C
:10D65000104602685768A742FAD31A600360486808
:10D660003168081A3060FEF758FE0DB916F046F919
:10D670002846BDE8F08110B5002817D0A0F10804B5
:10D68000FEF7D1FE0C496068083100E011460A68D7
:10D6900053688342FAD3226007480C6061680268CD
:10D6A00011440160BDE81040FEF737BE10BD0248CE
:10D6B000006870477047000064200020E417006095
:10D6C000704770B5BA4D044640212846FCF75EFD10
:10D6D0000028F9D0A1B22846FCF7F7FC204670BD1F
:10D6E0002DE9F043814687B0012144F23400FBF775
:10D6F0006AFCAF4D2846FCF7EFFB6815ADF810004B
:10D7000003208DF812001820DFF8A8828DF813008E
:10D7100004A94046FBF751FA2E15ADF8106004201D
:10D720008DF8130004A94046FBF747FAAF15ADF892
:10D73000107010248DF8134004A94046FBF73DFA01
:10D74000ADF810708DF8134004A99B48FBF735FA2B
:10D7500025208DF8140000248DF8154001208DF847
:10D7600016008DF8170005A8FAF789FE934ACDF840
:10D770000090A81492F85210022925D0012926D031
:10D78000ADF80840ADF8044092F8551001292AD0B0
:10D79000022923D0032924D0ADF806400C20ADF88F
:10D7A0000A00ADF80C4069462846FCF7C5FB01228B
:10D7B00040F225512846FCF73CFC01212846FCF7A5
:10D7C0002EFC07B0BDE8F083ADF8086003E04FF42D
:10D7D000C061ADF80810ADF80400D5E74FF4005073
:10D7E00001E04FF44050ADF80600D7E72DE9F043D3
:10D7F0008146012187B08804FBF7EEFB0121482018
:10D80000FBF7E1FB6E4D2846FCF766FB2E15ADF8E5
:10D81000106003278DF812701820DFF8A8818DF8AA
:10D82000130004A94046FBF7C8F9EC14ADF810400A
:10D8300004208DF8130004A94046FBF7BEF9ADF8AB
:10D84000104010208DF8130004A95F48FBF7B5F9CC
:10D8500027208DF8140000248DF815408DF81670DF
:10D8600001208DF8170005A8FAF709FE534ACDF8F4
:10D870000090ADF8044092F85410A814022923D067
:10D88000012924D0ADF80840ADF8044092F85710B3
:10D89000012928D0022921D0032922D0ADF8064041
:10D8A0000C20ADF80A00ADF80C4069462846FCF79C
:10D8B00043FB012240F225512846FCF7BAFB012127
:10D8C0002846FCF7ACFB7CE7ADF8086003E04FF4BA
:10D8D000C061ADF80810ADF80400D7E74FF4005070
:10D8E00001E04FF44050ADF80600D9E72DE9F043D0
:10D8F0008146012187B04804FBF76EFB012104201B
:10D90000FBF761FB314E3046FCF7E6FA0427ADF831
:10D91000007003258DF802501820DFF898808DF8EC
:10D92000030069464046FBF748F90824ADF800407B
:10D930008DF8037069464046FBF73FF91F4890F8A1
:10D940002310012901D0052908D1ADF8004010208D
:10D950008DF8030069461E48FBF72FF926208DF845
:10D96000140000248DF815408DF8165001208DF814
:10D97000170005A8FAF783FDADF80C400C20ADF8B0
:10D980000840ADF80E00CDF80490ADF80A40ADF8AF
:10D99000104001A93046FCF7CFFA012240F2255190
:10D9A0003046FCF746FB01213046FCF738FB08E720
:10D9B00000380140000801400014014014390020E3
:10D9C00000480040000C01400018014000440040A5
:10D9D000001001404FF0E0210A6922F004020A61C0
:10D9E000224AC0084FF47A731070584301235380C1
:10D9F0004861086940F00100086170472DE9F04175
:10DA00004FF0E02700247E691849097800FB01F5F2
:10DA1000FFF7A7FDB969B8698842FCD002D2A1EB33
:10DA2000000102E0A6EB000211440C440146AC42A6
:10DA3000F1D3BDE8F041FFF7A0BD70B50446FEF795
:10DA40008DFF01280CD0094D6888844203D3B4FBB4
:10DA5000F0F0FEF714FD6888B4FBF0F100FB114410
:10DA60004FF47A706043BDE87040C7E72000006063
:10DA7000F749C1F8A001704738B50A46062814D006
:10DA8000052819D0F34C08B3092829D0F24C0128F5
:10DA90002FD0032839D0F14C02283FD0042842D09F
:10DAA0000A284FD00B286FD08AE0042AFCD201EB61
:10DAB0004110EB49084443E0082AF5D2C1EBC1000C
:10DAC000E84900EB400001EB400039E069461046B0
:10DAD0000EF0A0FA08E0C0EBC00101EB40102EE010
